{
  "address": "0x631e0833233f3D6C712C1116807737D48197b461",
  "abi": [
    {
      "inputs": [
        {
          "internalType": "string",
          "name": "_firstName",
          "type": "string"
        },
        {
          "internalType": "string",
          "name": "_lastName",
          "type": "string"
        },
        {
          "internalType": "string",
          "name": "_avatarColor",
          "type": "string"
        },
        {
          "internalType": "string",
          "name": "_details",
          "type": "string"
        },
        {
          "internalType": "address",
          "name": "_aggregatorV3Interface",
          "type": "address"
        }
      ],
      "stateMutability": "nonpayable",
      "type": "constructor"
    },
    {
      "inputs": [],
      "name": "FundMe__NotOwner",
      "type": "error"
    },
    {
      "inputs": [
        {
          "internalType": "uint256",
          "name": "required",
          "type": "uint256"
        }
      ],
      "name": "InsufficientBalance",
      "type": "error"
    },
    {
      "anonymous": false,
      "inputs": [
        {
          "indexed": false,
          "internalType": "address",
          "name": "_from",
          "type": "address"
        },
        {
          "indexed": false,
          "internalType": "uint256",
          "name": "_amount",
          "type": "uint256"
        }
      ],
      "name": "donation",
      "type": "event"
    },
    {
      "inputs": [],
      "name": "MINIMUN_USD",
      "outputs": [
        {
          "internalType": "uint256",
          "name": "",
          "type": "uint256"
        }
      ],
      "stateMutability": "view",
      "type": "function"
    },
    {
      "inputs": [],
      "name": "avatar_color",
      "outputs": [
        {
          "internalType": "string",
          "name": "",
          "type": "string"
        }
      ],
      "stateMutability": "view",
      "type": "function"
    },
    {
      "inputs": [
        {
          "internalType": "uint256",
          "name": "_amount",
          "type": "uint256"
        }
      ],
      "name": "changeMinimunUsd",
      "outputs": [],
      "stateMutability": "nonpayable",
      "type": "function"
    },
    {
      "inputs": [],
      "name": "created_at",
      "outputs": [
        {
          "internalType": "uint256",
          "name": "",
          "type": "uint256"
        }
      ],
      "stateMutability": "view",
      "type": "function"
    },
    {
      "inputs": [],
      "name": "details",
      "outputs": [
        {
          "internalType": "string",
          "name": "",
          "type": "string"
        }
      ],
      "stateMutability": "view",
      "type": "function"
    },
    {
      "inputs": [],
      "name": "donate",
      "outputs": [],
      "stateMutability": "payable",
      "type": "function"
    },
    {
      "inputs": [],
      "name": "first_name",
      "outputs": [
        {
          "internalType": "string",
          "name": "",
          "type": "string"
        }
      ],
      "stateMutability": "view",
      "type": "function"
    },
    {
      "inputs": [],
      "name": "getCurrentBalance",
      "outputs": [
        {
          "internalType": "uint256",
          "name": "",
          "type": "uint256"
        }
      ],
      "stateMutability": "view",
      "type": "function"
    },
    {
      "inputs": [],
      "name": "getDataDonee",
      "outputs": [
        {
          "internalType": "string",
          "name": "",
          "type": "string"
        },
        {
          "internalType": "string",
          "name": "",
          "type": "string"
        },
        {
          "internalType": "string",
          "name": "",
          "type": "string"
        },
        {
          "internalType": "string",
          "name": "",
          "type": "string"
        },
        {
          "internalType": "uint256",
          "name": "",
          "type": "uint256"
        },
        {
          "internalType": "uint256",
          "name": "",
          "type": "uint256"
        },
        {
          "internalType": "address",
          "name": "",
          "type": "address"
        }
      ],
      "stateMutability": "view",
      "type": "function"
    },
    {
      "inputs": [
        {
          "internalType": "uint256",
          "name": "index",
          "type": "uint256"
        }
      ],
      "name": "getDonor",
      "outputs": [
        {
          "internalType": "address",
          "name": "",
          "type": "address"
        }
      ],
      "stateMutability": "view",
      "type": "function"
    },
    {
      "inputs": [],
      "name": "getDonors",
      "outputs": [
        {
          "internalType": "address[]",
          "name": "",
          "type": "address[]"
        }
      ],
      "stateMutability": "view",
      "type": "function"
    },
    {
      "inputs": [],
      "name": "getMinimunUsd",
      "outputs": [
        {
          "internalType": "uint256",
          "name": "",
          "type": "uint256"
        }
      ],
      "stateMutability": "view",
      "type": "function"
    },
    {
      "inputs": [],
      "name": "last_name",
      "outputs": [
        {
          "internalType": "string",
          "name": "",
          "type": "string"
        }
      ],
      "stateMutability": "view",
      "type": "function"
    },
    {
      "inputs": [
        {
          "internalType": "address",
          "name": "",
          "type": "address"
        }
      ],
      "name": "s_addressToAmountDonated",
      "outputs": [
        {
          "internalType": "uint256",
          "name": "",
          "type": "uint256"
        }
      ],
      "stateMutability": "view",
      "type": "function"
    },
    {
      "inputs": [
        {
          "internalType": "uint256",
          "name": "",
          "type": "uint256"
        }
      ],
      "name": "s_donors",
      "outputs": [
        {
          "internalType": "address",
          "name": "",
          "type": "address"
        }
      ],
      "stateMutability": "view",
      "type": "function"
    },
    {
      "inputs": [],
      "name": "withdraw",
      "outputs": [],
      "stateMutability": "nonpayable",
      "type": "function"
    }
  ],
  "transactionHash": "0x36c93c4f7fb19e27f765b0dd0e90eb0d370c2c97d8eac341b6ed4ac9bd8b6415",
  "args": [
    "Alex",
    "Srebernic",
    "#4287f5",
    "Test",
    "0x8A753747A1Fa494EC906cE90E9f37563A8AF630e"
  ],
  "numDeployments": 1,
  "solcInputHash": "9a1aad1907b51ed5f1866dd9a77f3376",
  "bytecode": "0x60c0604052670de0b6b3a76400006000553480156200001d57600080fd5b5060405162001d8b38038062001d8b8339818101604052810190620000439190620003d3565b3373ffffffffffffffffffffffffffffffffffffffff1660808173ffffffffffffffffffffffffffffffffffffffff168152505084600390805190602001906200008f92919062000121565b508360049080519060200190620000a892919062000121565b508260059080519060200190620000c192919062000121565b508160069080519060200190620000da92919062000121565b50426007819055508073ffffffffffffffffffffffffffffffffffffffff1660a08173ffffffffffffffffffffffffffffffffffffffff168152505050505050506200053c565b8280546200012f9062000506565b90600052602060002090601f0160209004810192826200015357600085556200019f565b82601f106200016e57805160ff19168380011785556200019f565b828001600101855582156200019f579182015b828111156200019e57825182559160200191906001019062000181565b5b509050620001ae9190620001b2565b5090565b5b80821115620001cd576000816000905550600101620001b3565b5090565b6000604051905090565b600080fd5b600080fd5b600080fd5b600080fd5b6000601f19601f8301169050919050565b7f4e487b7100000000000000000000000000000000000000000000000000000000600052604160045260246000fd5b6200023a82620001ef565b810181811067ffffffffffffffff821117156200025c576200025b62000200565b5b80604052505050565b600062000271620001d1565b90506200027f82826200022f565b919050565b600067ffffffffffffffff821115620002a257620002a162000200565b5b620002ad82620001ef565b9050602081019050919050565b60005b83811015620002da578082015181840152602081019050620002bd565b83811115620002ea576000848401525b50505050565b600062000307620003018462000284565b62000265565b905082815260208101848484011115620003265762000325620001ea565b5b62000333848285620002ba565b509392505050565b600082601f830112620003535762000352620001e5565b5b815162000365848260208601620002f0565b91505092915050565b600073ffffffffffffffffffffffffffffffffffffffff82169050919050565b60006200039b826200036e565b9050919050565b620003ad816200038e565b8114620003b957600080fd5b50565b600081519050620003cd81620003a2565b92915050565b600080600080600060a08688031215620003f257620003f1620001db565b5b600086015167ffffffffffffffff811115620004135762000412620001e0565b5b62000421888289016200033b565b955050602086015167ffffffffffffffff811115620004455762000444620001e0565b5b62000453888289016200033b565b945050604086015167ffffffffffffffff811115620004775762000476620001e0565b5b62000485888289016200033b565b935050606086015167ffffffffffffffff811115620004a957620004a8620001e0565b5b620004b7888289016200033b565b9250506080620004ca88828901620003bc565b9150509295509295909350565b7f4e487b7100000000000000000000000000000000000000000000000000000000600052602260045260246000fd5b600060028204905060018216806200051f57607f821691505b60208210811415620005365762000535620004d7565b5b50919050565b60805160a05161181b620005706000396000610e430152600081816103b5015281816105ac0152610a5d015261181b6000f3fe6080604052600436106100f35760003560e01c8063a57497101161008a578063c5a86bdb11610059578063c5a86bdb14610322578063cc7318f11461034d578063ed88c68e14610378578063eecc285a14610382576100f3565b8063a574971014610266578063b1a4d9db14610291578063b4d01e33146102bc578063bb851158146102e5576100f3565b80636136a906116100c65780636136a906146101a2578063957545dd146101df57806396f300d4146102105780639c6f0d851461023b576100f3565b80632100f479146100f85780633ccfd60b146101235780634504d7b71461013a578063565974d314610177575b600080fd5b34801561010457600080fd5b5061010d6103ad565b60405161011a9190610fbc565b60405180910390f35b34801561012f57600080fd5b506101386103b3565b005b34801561014657600080fd5b50610161600480360381019061015c9190611008565b610642565b60405161016e9190611076565b60405180910390f35b34801561018357600080fd5b5061018c610681565b604051610199919061112a565b60405180910390f35b3480156101ae57600080fd5b506101c960048036038101906101c49190611008565b61070f565b6040516101d69190611076565b60405180910390f35b3480156101eb57600080fd5b506101f4610757565b604051610207979695949392919061114c565b60405180910390f35b34801561021c57600080fd5b506102256109b6565b6040516102329190611295565b60405180910390f35b34801561024757600080fd5b50610250610a44565b60405161025d9190610fbc565b60405180910390f35b34801561027257600080fd5b5061027b610a4a565b6040516102889190610fbc565b60405180910390f35b34801561029d57600080fd5b506102a6610a52565b6040516102b39190610fbc565b60405180910390f35b3480156102c857600080fd5b506102e360048036038101906102de9190611008565b610a5b565b005b3480156102f157600080fd5b5061030c600480360381019061030791906112e3565b610afd565b6040516103199190610fbc565b60405180910390f35b34801561032e57600080fd5b50610337610b15565b604051610344919061112a565b60405180910390f35b34801561035957600080fd5b50610362610ba3565b60405161036f919061112a565b60405180910390f35b610380610c31565b005b34801561038e57600080fd5b50610397610d76565b6040516103a4919061112a565b60405180910390f35b60005481565b7f000000000000000000000000000000000000000000000000000000000000000073ffffffffffffffffffffffffffffffffffffffff163373ffffffffffffffffffffffffffffffffffffffff1614610438576040517f579610db00000000000000000000000000000000000000000000000000000000815260040160405180910390fd5b600060018054806020026020016040519081016040528092919081815260200182805480156104bc57602002820191906000526020600020905b8160009054906101000a900473ffffffffffffffffffffffffffffffffffffffff1673ffffffffffffffffffffffffffffffffffffffff1681526020019060010190808311610472575b5050505050905060005b81518110156105475760008282815181106104e4576104e3611310565b5b602002602001015190506000600260008373ffffffffffffffffffffffffffffffffffffffff1673ffffffffffffffffffffffffffffffffffffffff1681526020019081526020016000208190555050808061053f9061136e565b9150506104c6565b50600067ffffffffffffffff811115610563576105626113b7565b5b6040519080825280602002602001820160405280156105915781602001602082028036833780820191505090505b50600190805190602001906105a7929190610efc565b5060007f000000000000000000000000000000000000000000000000000000000000000073ffffffffffffffffffffffffffffffffffffffff16476040516105ee90611417565b60006040518083038185875af1925050503d806000811461062b576040519150601f19603f3d011682016040523d82523d6000602084013e610630565b606091505b505090508061063e57600080fd5b5050565b6001818154811061065257600080fd5b906000526020600020016000915054906101000a900473ffffffffffffffffffffffffffffffffffffffff1681565b6006805461068e9061145b565b80601f01602080910402602001604051908101604052809291908181526020018280546106ba9061145b565b80156107075780601f106106dc57610100808354040283529160200191610707565b820191906000526020600020905b8154815290600101906020018083116106ea57829003601f168201915b505050505081565b60006001828154811061072557610724611310565b5b9060005260206000200160009054906101000a900473ffffffffffffffffffffffffffffffffffffffff169050919050565b60608060608060008060006003600460066005476007543086805461077b9061145b565b80601f01602080910402602001604051908101604052809291908181526020018280546107a79061145b565b80156107f45780601f106107c9576101008083540402835291602001916107f4565b820191906000526020600020905b8154815290600101906020018083116107d757829003601f168201915b505050505096508580546108079061145b565b80601f01602080910402602001604051908101604052809291908181526020018280546108339061145b565b80156108805780601f1061085557610100808354040283529160200191610880565b820191906000526020600020905b81548152906001019060200180831161086357829003601f168201915b505050505095508480546108939061145b565b80601f01602080910402602001604051908101604052809291908181526020018280546108bf9061145b565b801561090c5780601f106108e15761010080835404028352916020019161090c565b820191906000526020600020905b8154815290600101906020018083116108ef57829003601f168201915b5050505050945083805461091f9061145b565b80601f016020809104026020016040519081016040528092919081815260200182805461094b9061145b565b80156109985780601f1061096d57610100808354040283529160200191610998565b820191906000526020600020905b81548152906001019060200180831161097b57829003601f168201915b50505050509350965096509650965096509650965090919293949596565b60606001805480602002602001604051908101604052809291908181526020018280548015610a3a57602002820191906000526020600020905b8160009054906101000a900473ffffffffffffffffffffffffffffffffffffffff1673ffffffffffffffffffffffffffffffffffffffff16815260200190600101908083116109f0575b5050505050905090565b60075481565b600047905090565b60008054905090565b7f000000000000000000000000000000000000000000000000000000000000000073ffffffffffffffffffffffffffffffffffffffff163373ffffffffffffffffffffffffffffffffffffffff1614610ae0576040517f579610db00000000000000000000000000000000000000000000000000000000815260040160405180910390fd5b670de0b6b3a764000081610af4919061148d565b60008190555050565b60026020528060005260406000206000915090505481565b60058054610b229061145b565b80601f0160208091040260200160405190810160405280929190818152602001828054610b4e9061145b565b8015610b9b5780601f10610b7057610100808354040283529160200191610b9b565b820191906000526020600020905b815481529060010190602001808311610b7e57829003601f168201915b505050505081565b60038054610bb09061145b565b80601f0160208091040260200160405190810160405280929190818152602001828054610bdc9061145b565b8015610c295780601f10610bfe57610100808354040283529160200191610c29565b820191906000526020600020905b815481529060010190602001808311610c0c57829003601f168201915b505050505081565b600054610c3d34610e04565b1015610c82576000546040517f92665351000000000000000000000000000000000000000000000000000000008152600401610c799190610fbc565b60405180910390fd5b34600260003373ffffffffffffffffffffffffffffffffffffffff1673ffffffffffffffffffffffffffffffffffffffff1681526020019081526020016000206000828254610cd191906114e7565b925050819055506001339080600181540180825580915050600190039060005260206000200160009091909190916101000a81548173ffffffffffffffffffffffffffffffffffffffff021916908373ffffffffffffffffffffffffffffffffffffffff1602179055507fdcf384279ea39b6f3a1e3f48d9b09e39e31f61b722ac5ee0417bc0466deec5303334604051610d6c92919061153d565b60405180910390a1565b60048054610d839061145b565b80601f0160208091040260200160405190810160405280929190818152602001828054610daf9061145b565b8015610dfc5780601f10610dd157610100808354040283529160200191610dfc565b820191906000526020600020905b815481529060010190602001808311610ddf57829003601f168201915b505050505081565b600080610e0f610e3e565b90506000670de0b6b3a76400008483610e28919061148d565b610e329190611595565b90508092505050919050565b6000807f000000000000000000000000000000000000000000000000000000000000000073ffffffffffffffffffffffffffffffffffffffff1663feaf968c6040518163ffffffff1660e01b815260040160a06040518083038186803b158015610ea757600080fd5b505afa158015610ebb573d6000803e3d6000fd5b505050506040513d601f19601f82011682018060405250810190610edf9190611653565b5050509150506402540be40081610ef691906116ce565b91505090565b828054828255906000526020600020908101928215610f75579160200282015b82811115610f745782518260006101000a81548173ffffffffffffffffffffffffffffffffffffffff021916908373ffffffffffffffffffffffffffffffffffffffff16021790555091602001919060010190610f1c565b5b509050610f829190610f86565b5090565b5b80821115610f9f576000816000905550600101610f87565b5090565b6000819050919050565b610fb681610fa3565b82525050565b6000602082019050610fd16000830184610fad565b92915050565b600080fd5b610fe581610fa3565b8114610ff057600080fd5b50565b60008135905061100281610fdc565b92915050565b60006020828403121561101e5761101d610fd7565b5b600061102c84828501610ff3565b91505092915050565b600073ffffffffffffffffffffffffffffffffffffffff82169050919050565b600061106082611035565b9050919050565b61107081611055565b82525050565b600060208201905061108b6000830184611067565b92915050565b600081519050919050565b600082825260208201905092915050565b60005b838110156110cb5780820151818401526020810190506110b0565b838111156110da576000848401525b50505050565b6000601f19601f8301169050919050565b60006110fc82611091565b611106818561109c565b93506111168185602086016110ad565b61111f816110e0565b840191505092915050565b6000602082019050818103600083015261114481846110f1565b905092915050565b600060e0820190508181036000830152611166818a6110f1565b9050818103602083015261117a81896110f1565b9050818103604083015261118e81886110f1565b905081810360608301526111a281876110f1565b90506111b16080830186610fad565b6111be60a0830185610fad565b6111cb60c0830184611067565b98975050505050505050565b600081519050919050565b600082825260208201905092915050565b6000819050602082019050919050565b61120c81611055565b82525050565b600061121e8383611203565b60208301905092915050565b6000602082019050919050565b6000611242826111d7565b61124c81856111e2565b9350611257836111f3565b8060005b8381101561128857815161126f8882611212565b975061127a8361122a565b92505060018101905061125b565b5085935050505092915050565b600060208201905081810360008301526112af8184611237565b905092915050565b6112c081611055565b81146112cb57600080fd5b50565b6000813590506112dd816112b7565b92915050565b6000602082840312156112f9576112f8610fd7565b5b6000611307848285016112ce565b91505092915050565b7f4e487b7100000000000000000000000000000000000000000000000000000000600052603260045260246000fd5b7f4e487b7100000000000000000000000000000000000000000000000000000000600052601160045260246000fd5b600061137982610fa3565b91507fffffffffffffffffffffffffffffffffffffffffffffffffffffffffffffffff8214156113ac576113ab61133f565b5b600182019050919050565b7f4e487b7100000000000000000000000000000000000000000000000000000000600052604160045260246000fd5b600081905092915050565b50565b60006114016000836113e6565b915061140c826113f1565b600082019050919050565b6000611422826113f4565b9150819050919050565b7f4e487b7100000000000000000000000000000000000000000000000000000000600052602260045260246000fd5b6000600282049050600182168061147357607f821691505b602082108114156114875761148661142c565b5b50919050565b600061149882610fa3565b91506114a383610fa3565b9250817fffffffffffffffffffffffffffffffffffffffffffffffffffffffffffffffff04831182151516156114dc576114db61133f565b5b828202905092915050565b60006114f282610fa3565b91506114fd83610fa3565b9250827fffffffffffffffffffffffffffffffffffffffffffffffffffffffffffffffff038211156115325761153161133f565b5b828201905092915050565b60006040820190506115526000830185611067565b61155f6020830184610fad565b9392505050565b7f4e487b7100000000000000000000000000000000000000000000000000000000600052601260045260246000fd5b60006115a082610fa3565b91506115ab83610fa3565b9250826115bb576115ba611566565b5b828204905092915050565b600069ffffffffffffffffffff82169050919050565b6115e5816115c6565b81146115f057600080fd5b50565b600081519050611602816115dc565b92915050565b6000819050919050565b61161b81611608565b811461162657600080fd5b50565b60008151905061163881611612565b92915050565b60008151905061164d81610fdc565b92915050565b600080600080600060a0868803121561166f5761166e610fd7565b5b600061167d888289016115f3565b955050602061168e88828901611629565b945050604061169f8882890161163e565b93505060606116b08882890161163e565b92505060806116c1888289016115f3565b9150509295509295909350565b60006116d982611608565b91506116e483611608565b9250827f7fffffffffffffffffffffffffffffffffffffffffffffffffffffffffffffff04821160008413600084131616156117235761172261133f565b5b817f800000000000000000000000000000000000000000000000000000000000000005831260008412600084131616156117605761175f61133f565b5b827f8000000000000000000000000000000000000000000000000000000000000000058212600084136000841216161561179d5761179c61133f565b5b827f7fffffffffffffffffffffffffffffffffffffffffffffffffffffffffffffff05821260008412600084121616156117da576117d961133f565b5b82820290509291505056fea2646970667358221220548010dedfd76c4ca57245227894a1be5ad2232425a558ca545afaeaddeeefb264736f6c63430008090033",
  "devdoc": {
    "kind": "dev",
    "methods": {},
    "version": 1
  },
  "userdoc": {
    "kind": "user",
    "methods": {},
    "version": 1
  },
  "storageLayout": {
    "storage": [
      {
        "astId": 61,
        "contract": "contracts/Donee.sol:Donee",
        "label": "MINIMUN_USD",
        "offset": 0,
        "slot": "0",
        "type": "t_uint256"
      },
      {
        "astId": 64,
        "contract": "contracts/Donee.sol:Donee",
        "label": "s_donors",
        "offset": 0,
        "slot": "1",
        "type": "t_array(t_address)dyn_storage"
      },
      {
        "astId": 68,
        "contract": "contracts/Donee.sol:Donee",
        "label": "s_addressToAmountDonated",
        "offset": 0,
        "slot": "2",
        "type": "t_mapping(t_address,t_uint256)"
      },
      {
        "astId": 73,
        "contract": "contracts/Donee.sol:Donee",
        "label": "first_name",
        "offset": 0,
        "slot": "3",
        "type": "t_string_storage"
      },
      {
        "astId": 75,
        "contract": "contracts/Donee.sol:Donee",
        "label": "last_name",
        "offset": 0,
        "slot": "4",
        "type": "t_string_storage"
      },
      {
        "astId": 77,
        "contract": "contracts/Donee.sol:Donee",
        "label": "avatar_color",
        "offset": 0,
        "slot": "5",
        "type": "t_string_storage"
      },
      {
        "astId": 79,
        "contract": "contracts/Donee.sol:Donee",
        "label": "details",
        "offset": 0,
        "slot": "6",
        "type": "t_string_storage"
      },
      {
        "astId": 81,
        "contract": "contracts/Donee.sol:Donee",
        "label": "created_at",
        "offset": 0,
        "slot": "7",
        "type": "t_uint256"
      }
    ],
    "types": {
      "t_address": {
        "encoding": "inplace",
        "label": "address",
        "numberOfBytes": "20"
      },
      "t_array(t_address)dyn_storage": {
        "base": "t_address",
        "encoding": "dynamic_array",
        "label": "address[]",
        "numberOfBytes": "32"
      },
      "t_mapping(t_address,t_uint256)": {
        "encoding": "mapping",
        "key": "t_address",
        "label": "mapping(address => uint256)",
        "numberOfBytes": "32",
        "value": "t_uint256"
      },
      "t_string_storage": {
        "encoding": "bytes",
        "label": "string",
        "numberOfBytes": "32"
      },
      "t_uint256": {
        "encoding": "inplace",
        "label": "uint256",
        "numberOfBytes": "32"
      }
    }
  }
}