{
  "address": "0x950254c51fd84e073e54f94018b6e4d4c9ed177f",
  "abi": [
    {
      "inputs": [
        {
          "internalType": "address",
          "name": "owner",
          "type": "address"
        },
        {
          "internalType": "address",
          "name": "_aggregatorV3Interface",
          "type": "address"
        }
      ],
      "stateMutability": "nonpayable",
      "type": "constructor"
    },
    {
      "inputs": [],
      "name": "FundMe__NotOwner",
      "type": "error"
    },
    {
      "inputs": [
        {
          "internalType": "uint256",
          "name": "required",
          "type": "uint256"
        }
      ],
      "name": "InsufficientBalance",
      "type": "error"
    },
    {
      "anonymous": false,
      "inputs": [
        {
          "indexed": false,
          "internalType": "address",
          "name": "_from",
          "type": "address"
        },
        {
          "indexed": false,
          "internalType": "uint256",
          "name": "_amount",
          "type": "uint256"
        }
      ],
      "name": "donation",
      "type": "event"
    },
    {
      "inputs": [],
      "name": "MINIMUN_USD",
      "outputs": [
        {
          "internalType": "uint256",
          "name": "",
          "type": "uint256"
        }
      ],
      "stateMutability": "view",
      "type": "function"
    },
    {
      "inputs": [
        {
          "internalType": "uint256",
          "name": "_amount",
          "type": "uint256"
        }
      ],
      "name": "changeMinimunUsd",
      "outputs": [],
      "stateMutability": "nonpayable",
      "type": "function"
    },
    {
      "inputs": [],
      "name": "donate",
      "outputs": [],
      "stateMutability": "payable",
      "type": "function"
    },
    {
      "inputs": [],
      "name": "getCurrentBalance",
      "outputs": [
        {
          "internalType": "uint256",
          "name": "",
          "type": "uint256"
        }
      ],
      "stateMutability": "view",
      "type": "function"
    },
    {
      "inputs": [
        {
          "internalType": "uint256",
          "name": "index",
          "type": "uint256"
        }
      ],
      "name": "getDonor",
      "outputs": [
        {
          "internalType": "address",
          "name": "",
          "type": "address"
        }
      ],
      "stateMutability": "view",
      "type": "function"
    },
    {
      "inputs": [],
      "name": "getDonors",
      "outputs": [
        {
          "internalType": "address[]",
          "name": "",
          "type": "address[]"
        }
      ],
      "stateMutability": "view",
      "type": "function"
    },
    {
      "inputs": [],
      "name": "getMinimunUsd",
      "outputs": [
        {
          "internalType": "uint256",
          "name": "",
          "type": "uint256"
        }
      ],
      "stateMutability": "view",
      "type": "function"
    },
    {
      "inputs": [],
      "name": "i_owner",
      "outputs": [
        {
          "internalType": "address",
          "name": "",
          "type": "address"
        }
      ],
      "stateMutability": "view",
      "type": "function"
    },
    {
      "inputs": [
        {
          "internalType": "address",
          "name": "",
          "type": "address"
        }
      ],
      "name": "s_addressToAmountDonated",
      "outputs": [
        {
          "internalType": "uint256",
          "name": "",
          "type": "uint256"
        }
      ],
      "stateMutability": "view",
      "type": "function"
    },
    {
      "inputs": [
        {
          "internalType": "uint256",
          "name": "",
          "type": "uint256"
        }
      ],
      "name": "s_donors",
      "outputs": [
        {
          "internalType": "address",
          "name": "",
          "type": "address"
        }
      ],
      "stateMutability": "view",
      "type": "function"
    },
    {
      "inputs": [],
      "name": "withdraw",
      "outputs": [],
      "stateMutability": "nonpayable",
      "type": "function"
    }
  ],
  "transactionHash": "0x88a09aca5e282680f00cdcf61958e7ac28525ca77eacdd2a145824b36d814171",
  "args": [
    "0x9D433DF80877C2601F4661B9F3838053Ad616Ff9",
    "0xD4a33860578De61DBAbDc8BFdb98FD742fA7028e"
  ],
  "numDeployments": 1,
  "solcInputHash": "cecc5699cd15abdb6b9df1b1b8041033",
  "bytecode": "0x60c0604052670de0b6b3a76400006000553480156200001d57600080fd5b50604051620012663803806200126683398181016040528101906200004391906200011d565b8173ffffffffffffffffffffffffffffffffffffffff1660808173ffffffffffffffffffffffffffffffffffffffff16815250508073ffffffffffffffffffffffffffffffffffffffff1660a08173ffffffffffffffffffffffffffffffffffffffff1681525050505062000164565b600080fd5b600073ffffffffffffffffffffffffffffffffffffffff82169050919050565b6000620000e582620000b8565b9050919050565b620000f781620000d8565b81146200010357600080fd5b50565b6000815190506200011781620000ec565b92915050565b60008060408385031215620001375762000136620000b3565b5b6000620001478582860162000106565b92505060206200015a8582860162000106565b9150509250929050565b60805160a0516110c76200019f6000396000610896015260008181610281015281816104780152818161063601526106f001526110c76000f3fe60806040526004361061009c5760003560e01c8063a574971011610064578063a574971014610188578063b1a4d9db146101b3578063b4d01e33146101de578063bb85115814610207578063dba6335f14610244578063ed88c68e1461026f5761009c565b80632100f479146100a15780633ccfd60b146100cc5780634504d7b7146100e35780636136a9061461012057806396f300d41461015d575b600080fd5b3480156100ad57600080fd5b506100b6610279565b6040516100c39190610a0f565b60405180910390f35b3480156100d857600080fd5b506100e161027f565b005b3480156100ef57600080fd5b5061010a60048036038101906101059190610a5b565b61050e565b6040516101179190610ac9565b60405180910390f35b34801561012c57600080fd5b5061014760048036038101906101429190610a5b565b61054d565b6040516101549190610ac9565b60405180910390f35b34801561016957600080fd5b50610172610595565b60405161017f9190610ba2565b60405180910390f35b34801561019457600080fd5b5061019d610623565b6040516101aa9190610a0f565b60405180910390f35b3480156101bf57600080fd5b506101c861062b565b6040516101d59190610a0f565b60405180910390f35b3480156101ea57600080fd5b5061020560048036038101906102009190610a5b565b610634565b005b34801561021357600080fd5b5061022e60048036038101906102299190610bf0565b6106d6565b60405161023b9190610a0f565b60405180910390f35b34801561025057600080fd5b506102596106ee565b6040516102669190610ac9565b60405180910390f35b610277610712565b005b60005481565b7f000000000000000000000000000000000000000000000000000000000000000073ffffffffffffffffffffffffffffffffffffffff163373ffffffffffffffffffffffffffffffffffffffff1614610304576040517f579610db00000000000000000000000000000000000000000000000000000000815260040160405180910390fd5b6000600180548060200260200160405190810160405280929190818152602001828054801561038857602002820191906000526020600020905b8160009054906101000a900473ffffffffffffffffffffffffffffffffffffffff1673ffffffffffffffffffffffffffffffffffffffff168152602001906001019080831161033e575b5050505050905060005b81518110156104135760008282815181106103b0576103af610c1d565b5b602002602001015190506000600260008373ffffffffffffffffffffffffffffffffffffffff1673ffffffffffffffffffffffffffffffffffffffff1681526020019081526020016000208190555050808061040b90610c7b565b915050610392565b50600067ffffffffffffffff81111561042f5761042e610cc4565b5b60405190808252806020026020018201604052801561045d5781602001602082028036833780820191505090505b506001908051906020019061047392919061094f565b5060007f000000000000000000000000000000000000000000000000000000000000000073ffffffffffffffffffffffffffffffffffffffff16476040516104ba90610d24565b60006040518083038185875af1925050503d80600081146104f7576040519150601f19603f3d011682016040523d82523d6000602084013e6104fc565b606091505b505090508061050a57600080fd5b5050565b6001818154811061051e57600080fd5b906000526020600020016000915054906101000a900473ffffffffffffffffffffffffffffffffffffffff1681565b60006001828154811061056357610562610c1d565b5b9060005260206000200160009054906101000a900473ffffffffffffffffffffffffffffffffffffffff169050919050565b6060600180548060200260200160405190810160405280929190818152602001828054801561061957602002820191906000526020600020905b8160009054906101000a900473ffffffffffffffffffffffffffffffffffffffff1673ffffffffffffffffffffffffffffffffffffffff16815260200190600101908083116105cf575b5050505050905090565b600047905090565b60008054905090565b7f000000000000000000000000000000000000000000000000000000000000000073ffffffffffffffffffffffffffffffffffffffff163373ffffffffffffffffffffffffffffffffffffffff16146106b9576040517f579610db00000000000000000000000000000000000000000000000000000000815260040160405180910390fd5b670de0b6b3a7640000816106cd9190610d39565b60008190555050565b60026020528060005260406000206000915090505481565b7f000000000000000000000000000000000000000000000000000000000000000081565b60005461071e34610857565b1015610763576000546040517f9266535100000000000000000000000000000000000000000000000000000000815260040161075a9190610a0f565b60405180910390fd5b34600260003373ffffffffffffffffffffffffffffffffffffffff1673ffffffffffffffffffffffffffffffffffffffff16815260200190815260200160002060008282546107b29190610d93565b925050819055506001339080600181540180825580915050600190039060005260206000200160009091909190916101000a81548173ffffffffffffffffffffffffffffffffffffffff021916908373ffffffffffffffffffffffffffffffffffffffff1602179055507fdcf384279ea39b6f3a1e3f48d9b09e39e31f61b722ac5ee0417bc0466deec530333460405161084d929190610de9565b60405180910390a1565b600080610862610891565b90506000670de0b6b3a7640000848361087b9190610d39565b6108859190610e41565b90508092505050919050565b6000807f000000000000000000000000000000000000000000000000000000000000000073ffffffffffffffffffffffffffffffffffffffff1663feaf968c6040518163ffffffff1660e01b815260040160a06040518083038186803b1580156108fa57600080fd5b505afa15801561090e573d6000803e3d6000fd5b505050506040513d601f19601f820116820180604052508101906109329190610eff565b5050509150506402540be400816109499190610f7a565b91505090565b8280548282559060005260206000209081019282156109c8579160200282015b828111156109c75782518260006101000a81548173ffffffffffffffffffffffffffffffffffffffff021916908373ffffffffffffffffffffffffffffffffffffffff1602179055509160200191906001019061096f565b5b5090506109d591906109d9565b5090565b5b808211156109f25760008160009055506001016109da565b5090565b6000819050919050565b610a09816109f6565b82525050565b6000602082019050610a246000830184610a00565b92915050565b600080fd5b610a38816109f6565b8114610a4357600080fd5b50565b600081359050610a5581610a2f565b92915050565b600060208284031215610a7157610a70610a2a565b5b6000610a7f84828501610a46565b91505092915050565b600073ffffffffffffffffffffffffffffffffffffffff82169050919050565b6000610ab382610a88565b9050919050565b610ac381610aa8565b82525050565b6000602082019050610ade6000830184610aba565b92915050565b600081519050919050565b600082825260208201905092915050565b6000819050602082019050919050565b610b1981610aa8565b82525050565b6000610b2b8383610b10565b60208301905092915050565b6000602082019050919050565b6000610b4f82610ae4565b610b598185610aef565b9350610b6483610b00565b8060005b83811015610b95578151610b7c8882610b1f565b9750610b8783610b37565b925050600181019050610b68565b5085935050505092915050565b60006020820190508181036000830152610bbc8184610b44565b905092915050565b610bcd81610aa8565b8114610bd857600080fd5b50565b600081359050610bea81610bc4565b92915050565b600060208284031215610c0657610c05610a2a565b5b6000610c1484828501610bdb565b91505092915050565b7f4e487b7100000000000000000000000000000000000000000000000000000000600052603260045260246000fd5b7f4e487b7100000000000000000000000000000000000000000000000000000000600052601160045260246000fd5b6000610c86826109f6565b91507fffffffffffffffffffffffffffffffffffffffffffffffffffffffffffffffff821415610cb957610cb8610c4c565b5b600182019050919050565b7f4e487b7100000000000000000000000000000000000000000000000000000000600052604160045260246000fd5b600081905092915050565b50565b6000610d0e600083610cf3565b9150610d1982610cfe565b600082019050919050565b6000610d2f82610d01565b9150819050919050565b6000610d44826109f6565b9150610d4f836109f6565b9250817fffffffffffffffffffffffffffffffffffffffffffffffffffffffffffffffff0483118215151615610d8857610d87610c4c565b5b828202905092915050565b6000610d9e826109f6565b9150610da9836109f6565b9250827fffffffffffffffffffffffffffffffffffffffffffffffffffffffffffffffff03821115610dde57610ddd610c4c565b5b828201905092915050565b6000604082019050610dfe6000830185610aba565b610e0b6020830184610a00565b9392505050565b7f4e487b7100000000000000000000000000000000000000000000000000000000600052601260045260246000fd5b6000610e4c826109f6565b9150610e57836109f6565b925082610e6757610e66610e12565b5b828204905092915050565b600069ffffffffffffffffffff82169050919050565b610e9181610e72565b8114610e9c57600080fd5b50565b600081519050610eae81610e88565b92915050565b6000819050919050565b610ec781610eb4565b8114610ed257600080fd5b50565b600081519050610ee481610ebe565b92915050565b600081519050610ef981610a2f565b92915050565b600080600080600060a08688031215610f1b57610f1a610a2a565b5b6000610f2988828901610e9f565b9550506020610f3a88828901610ed5565b9450506040610f4b88828901610eea565b9350506060610f5c88828901610eea565b9250506080610f6d88828901610e9f565b9150509295509295909350565b6000610f8582610eb4565b9150610f9083610eb4565b9250827f7fffffffffffffffffffffffffffffffffffffffffffffffffffffffffffffff0482116000841360008413161615610fcf57610fce610c4c565b5b817f8000000000000000000000000000000000000000000000000000000000000000058312600084126000841316161561100c5761100b610c4c565b5b827f8000000000000000000000000000000000000000000000000000000000000000058212600084136000841216161561104957611048610c4c565b5b827f7fffffffffffffffffffffffffffffffffffffffffffffffffffffffffffffff058212600084126000841216161561108657611085610c4c565b5b82820290509291505056fea2646970667358221220fac31a572eb571b074de763e8b986afe29892d9a8c49c561fff0b2811193ef7e64736f6c63430008090033",
  "devdoc": {
    "kind": "dev",
    "methods": {},
    "version": 1
  },
  "userdoc": {
    "kind": "user",
    "methods": {},
    "version": 1
  },
  "storageLayout": {
    "storage": [
      {
        "astId": 61,
        "contract": "contracts/Donee.sol:Donee",
        "label": "MINIMUN_USD",
        "offset": 0,
        "slot": "0",
        "type": "t_uint256"
      },
      {
        "astId": 64,
        "contract": "contracts/Donee.sol:Donee",
        "label": "s_donors",
        "offset": 0,
        "slot": "1",
        "type": "t_array(t_address)dyn_storage"
      },
      {
        "astId": 68,
        "contract": "contracts/Donee.sol:Donee",
        "label": "s_addressToAmountDonated",
        "offset": 0,
        "slot": "2",
        "type": "t_mapping(t_address,t_uint256)"
      }
    ],
    "types": {
      "t_address": {
        "encoding": "inplace",
        "label": "address",
        "numberOfBytes": "20"
      },
      "t_array(t_address)dyn_storage": {
        "base": "t_address",
        "encoding": "dynamic_array",
        "label": "address[]",
        "numberOfBytes": "32"
      },
      "t_mapping(t_address,t_uint256)": {
        "encoding": "mapping",
        "key": "t_address",
        "label": "mapping(address => uint256)",
        "numberOfBytes": "32",
        "value": "t_uint256"
      },
      "t_uint256": {
        "encoding": "inplace",
        "label": "uint256",
        "numberOfBytes": "32"
      }
    }
  }
}